:020000041000EA
:1000000000B5324B212058609868022188439860DF
:10001000D860186158612E4B002199600221596106
:100020000121F02299502B49196001219960352056
:1000300000F044F80222904214D00621196600F024
:1000400034F8196E01211966002018661A6600F04E
:100050002CF8196E196E196E052000F02FF8012189
:100060000842F9D1002199601B49196000215960AB
:100070001A491B48016001219960EB211966A021F2
:10008000196600F012F800219960164914480160C1
:100090000121996001BC002800D000471248134993
:1000A000086003C880F30888084703B5996A0420EC
:1000B0000142FBD001200142F8D103BD02B5186610
:1000C0001866FFF7F2FF186E186E02BD00000240BE
:1000D000000000180000070000035F00212200005C
:1000E000F4000018222000A00001001008ED00E03C
:1000F00000000000000000000000000074B24E7A12
:1001000000200420F7010010C3010010C5010010F9
:10011000C1010010C1010010C1010010C101001097
:10012000C1010010C1010010C1010010C701001081
:10013000C1010010C1010010C9010010CB01001065
:10014000CD010010CD010010CD010010CD01001037
:10015000CD010010CD010010CD010010CD01001027
:10016000CD010010CD010010CD010010CD01001017
:10017000CD010010CD010010CD010010CD01001007
:10018000CD010010CD010010CD010010CD010010F7
:10019000CD010010CD010010CD010010CD010010E7
:1001A000CD010010CD010010CD010010CD010010D7
:1001B000CD010010CD010010CD010010CD010010C7
:1001C00000BE00BE00BE00BE00BE00BE00F04BF888
:1001D000103800BEF2EB88712406011044060110AD
:1001E0003402001090A31AE700202149086006C8D5
:1001F00081F3088810471F48006800282FD10DA4FC
:100200000ECC002902D000F012F8F9E71A491B4A77
:10021000002000E001C19142FCD1194988471949E9
:1002200088471949884700BEFDE701C901C29A42C3
:10023000FBD3704744060110C0000020C01300200B
:10024000441901100000042000000420441901108A
:1002500000100420001004200000000070470B482C
:1002600003F0B0FC0047EFF30580C0B27047000018
:1002700008ED00E0000000D0C01300200C160120A3
:10028000CD2400108104001089240010575600006E
:1002900006005250ABB360539CE900100600525068
:1002A000861C0302ACE90010060052505422A29DA5
:1002B000B8E9001005005250DE65F46844190110D9
:1002C000F8B5C04610B5064C2378002B07D1054B76
:1002D000002B02D0044800E000BF0123237010BDB2
:1002E000D014002000000000B0D70010044B10B55F
:1002F000002B03D00349044800E000BF10BDC046F6
:1003000000000000D4140020B0D700103038C0B274
:100310007047000010B54A4CA544F021890169449A
:10032000484B0A0013CB13C213CB13C219681160D8
:100330009B889380444804F09DFD04F0DDFDC0B22D
:10034000424B6B4418700D2801D00A28F5D10BF0F0
:10035000CFFD002803D13E4804F08CFDFEE70122CA
:100360003C499520C00168440AF032F8011E03D0D0
:10037000394804F0B1FDFEE70122F021890169440A
:10038000364868440AF052F8011E03D0344804F09D
:10039000A3FDFEE7F02189016944324804F09CFD89
:1003A000314804F067FD00F0A1F801002F4804F087
:1003B00093FD00F09BF80F280BD8C021274A6A4410
:1003C0000901224868440AF0DDFB0028EBD0002434
:1003D00017E027480CF0D0F8264804F04BFD1F48E2
:1003E00068440AF0B8FB011E25D1002219490020FB
:1003F00009F0EEFF204B9D4410BD01236A461355C2
:100400000134C0231B019C420FD2104B6B44185D7A
:10041000FFF77CFFA300C02212016A449850012814
:10042000EBD000236A461355EAE7C021090168466C
:1004300000F0B8F8B7E7114804F04EFDFEE7C046FB
:1004400018B3FFFFB8D80010B0D70010203C000050
:10045000DCD7001004D8001008D800102048000095
:1004600034D8001058D8001074D800107CD8001070
:10047000110800108CD80010E84C000094D800102F
:1004800000B585B0E12003AB02AA01A9800200F00B
:1004900099FA002804D1E1218902084802F092F873
:1004A000039A0299019800F051FA04F021FD00F03E
:1004B00007F8FFF72FFF002005B000BDD8D80010C7
:1004C00010B50023054A1360054A1360054A1360FE
:1004D0001F2000F08FFB044B186010BD600C012042
:1004E000900C01201C0C0120B81301200A4B1A6843
:1004F000EFF3108172B61368002BFCD0BFF35F8F4F
:10050000064B1868044B1B68BFF35F8F00221A600C
:1005100081F310887047C046B81301201C0C0120DD
:1005200070B504000E00FFF7E1FF00282BD0174D37
:100530002A689100164BCB58336053009B189B02DE
:1005400014495B182360501C142103F08FFB2960B1
:10055000114B1A68EFF3108172B61368002BFCD0B0
:10056000BFF35F8F0D4A1368013B13600A4B1B6892
:10057000BFF35F8F00221A6081F31088084804F0EF
:1005800079FC012070BD0020FCE7C046600C012012
:10059000A00A0120A01A0020B81301201C0C012081
:1005A0000CD9001070B506000D00FFF79FFF13284F
:1005B00038D9002070BD1C4B1968B05C4B005B182B
:1005C0009B021A4CE31898540132AA42F3D3164CFA
:1005D00023689A00164BD5502A002168154804F06C
:1005E0007BFC2368581C142103F040FB2160124B54
:1005F0001A68EFF3108172B61368002BFCD0BFF3BA
:100600005F8F0E4A1368013313600B4B1B68BFF3F7
:100610005F8F00221A6081F31088094804F02AFCD9
:100620000120C7E70022D0E7900C0120A01A00208B
:10063000A00A012018D90010B81301201C0C0120B9
:1006400034D90010F0B5CE46474680B591B00500CC
:100650000F0016009846189C484B984200D188E03D
:10066000072399464946200000F004FA601C4946D9
:1006700000F000FA01230093013322003900280022
:100680000CF040F81022002108A804F077FA80232B
:100690005B020893F8235B0209938023DB020A9331
:1006A000C0231B030A93102208A904A804F06CFAC3
:1006B00032001032059B0393314B03990B40F1013B
:1006C0000B43120313430593102204A90CA804F052
:1006D0005BFA0F9B03932B4B039A134064011C435B
:1006E00080231B051C430F940E9B0393264B039AF8
:1006F0001340A02424031C430E94244B1C400E944E
:10070000A400A4088023DB051C430E94052002F0FE
:1007100073F804F035F9041C434698004044400047
:1007200004F02EF9011C201C04F00BF9804604F0A3
:100730004FF984B2002C1FD0200004F021F9011CD5
:10074000404604F0F4F88721C90504F010F904F0DC
:100750003FF9C0B20002240404430C940CAB3200F5
:10076000390028000CF006F811B0C0BCB946B046FC
:10077000F0BD0623994675E70020EBE70000205006
:100780007F00FEFF1FFCFFE3FFFFF5C1FFFF0AFE36
:100790001F230340054A94466344980030230268AF
:1007A0009A4309010B401343036070470170001026
:1007B0001F230340054A94466344980008230268B7
:1007C0009A43C9000B401343036070470170001047
:1007D0001F230340054A944663449800042302689B
:1007E0009A4389000B401343036070470170001067
:1007F0001F230340012211400448844663449800AB
:1008000003689343194301607047C04601700010AC
:1008100070B584B0414C424920000BF057FF0600F0
:10082000404D102300932B00020000212000FFF711
:1008300009FF0E2300932B00320001212000FFF757
:1008400001FF23680122934313432360236801328D
:100850009343134323600E2410E003212000FFF78D
:1008600097FF00212000FFF7A3FF00212000FFF7E2
:10087000AFFF01212000FFF7BBFF0134112CECD9A1
:1008800022E0294804F0F6FA284B01221A7025E0EC
:10089000274804F0EFFA254B00221A700021254862
:1008A00004F01AFB1AE0244804F0E4FA234B029304
:1008B000C0239B0003930399214804F00DFB002201
:1008C00000230399914217D8FFF710FE042803D89C
:1008D000164B1B78002BD4D00E28D9D8194804F019
:1008E000C9FA124B1B78002BDDD103A902A8FFF730
:1008F00017FE0028DFD1D6E7591C0298C35C002BF5
:1009000009D01148054B5B68DB03FBD4034B18612E
:1009100001320B00D5E70020F4E7C046000020506C
:10092000ACD9001000E02E0040D9001008160120BC
:1009300050D900105CD900107CD90010A4100120FF
:10094000A0D900106CD90010FFFFFF7FF0B583B075
:1009500004000D00160000F033F9002801D003B0A8
:10096000F0BD154F00973B0001220121053001F039
:1009700041FE00962B0022000121104801F042FFA9
:1009800031006943200003F071F904000C4B00931F
:1009900000220221042001F02DFE009423000022F9
:1009A0000121052001F026FE00973B0002220021D4
:1009B000062001F01FFED2E7006CDC02008002403E
:1009C000001BB700F0B5DE4657464E464546E0B53B
:1009D00083B080468B4600920193042001F00CFF07
:1009E000FA21890003F042F98246A0235B00994670
:1009F0002CE0013C002C20D025007D432900300054
:100A000003F034F94045F4D12900300003F02EF909
:100A10000029EED173019B1B9B009E19F6005B46DB
:100A20001E60009B1F60019B1C60012003B0F0BC96
:100A3000BB46B246A946A046F0BD013F002F01D0FB
:100A40003C00D7E701235B429C46E1444B460F2B19
:100A500009D956464B465E43044BF218044B9A4262
:100A6000F0D80727EAE70020E0E7C046508EF4FF01
:100A700050F80C0010B58300084A944663441C6883
:100A800040226240C02414408022520113431C6063
:100A9000C000034B9C466044416010BD04C001404F
:100AA0000040014080000B4B9C46604400290DD063
:100AB0000823002A0CD004221343026853400C225E
:100AC0001340802252011043036070470023F0E777
:100AD0000022F1E704C001408000064B9C466044C0
:100AE0000901036859403023194080235B011843F2
:100AF0000160704704C0014010B501238340D0223B
:100B00001206936293610521FFF7B4FF10BD000048
:100B1000EFF3108072B6034B1B68002BFBD0BFF3C2
:100B20005F8F70472C0100D0BFF35F8F024B002214
:100B30001A6080F3108870472C0100D0F8B50600C9
:100B40000C001500FFF7E4FFE308F718F15C07223B
:100B50002240012393400B4205D1DBB20B433B7093
:100B6000FFF7E2FFF8BD2100280001F02BFDF0B5F2
:100B700083B00600019114001F00FFF7C9FF00E0D9
:100B80000134BC420CD8E308F518F35C072121407E
:100B900001228A401A42F3D1D2B21A432A7001E0EC
:100BA00001246442FFF7C0FF002C02DB200003B0E9
:100BB000F0BD019B002BF9D0089801F003FD000067
:100BC000034B1B6802201840431E9841C0B2704777
:100BD00000C00640002307E0054A9A189200BFF3C0
:100BE0005F8F0021116001331F2BF5D97047C0467C
:100BF0004000003410B51F2808D8074B9C466044BD
:100C00008000BFF35F8F0023036010BD034B044AD5
:100C10001921044801F03CFC40000034D8D90010F0
:100C200050DA0010F4D90010054A1078431CDBB2EA
:100C30001370172B02D9130010221A707047C04688
:100C40008807002000B583B00100044B00931F23E8
:100C500018220348FFF78BFF03B000BD34DA001001
:100C6000F00B0120074B9B68103080001950BFF338
:100C70005F8FBFF35F8F044B0021196082F31088F0
:100C80007047C04600ED00E0240100D010B5091AFD
:100C9000081F0A4B9C466144094A914208D8C30781
:100CA00006D440104005400D064B184380B210BDDD
:100CB000054B064A9921064801F0EAFBFC070000B3
:100CC000FE0F000000E0FFFF60DA0010C0DC001043
:100CD00090DA001010B5091A04394C08090B08D134
:100CE0004905490D064A11430180064B23434380C1
:100CF00010BD054B054AA121054801F0C9FBC046BE
:100D000000F0FFFF00F8FFFFD0DA001094DC0010C5
:100D100090DA001001238340034A10681840431EF4
:100D20009841C0B27047C04600E100E0002904D0FD
:100D3000034B1860034B18607047034B1860FBE7C8
:100D400080E200E000E100E080E100E010B5012376
:100D500083401800FFF7EAFF10BD00000123834025
:100D6000014A13607047C04600E200E0024B9B68F6
:100D700010308000C058704700ED00E010B5FFF75C
:100D8000F5FF002805D0054BC01A2F2803D80120F5
:100D900010BD0020FCE70020FAE7C0468C070020C9
:100DA00070B504000D00EFF3108672B60C4B1B6893
:100DB000002BFBD0BFF35F8F2000FFF7D7FF094B5D
:100DC000984201D0A84205D1320029002000FFF747
:100DD00049FF70BD044B054A7C21054801F058FBD2
:100DE000240100D0CD010010E0DA0010F4DC001086
:100DF00090DA0010F0B5DE4657464E464546E0B55F
:100E000089B0814601911500EFF3108A72B6744BD8
:100E10001B68002BFBD0BFF35F8F724B0027DF579F
:100E2000002F40DB7C00E419A4006F482418062240
:100E3000A2566C4B1A706D4B9A684B4610339B0050
:100E4000D35898461E001B1A2F2B38D9684B98454B
:100E50002FD105AE674B33807B009B46D8198000AD
:100E6000614B9846404402306349FFF70FFF7080A2
:100E7000624BB380FF23B371F571019B07935F440D
:100E8000BF0047440ECE0EC701231C43A046524666
:100E900041464846FFF7E6FE09B0F0BCBB46B24605
:100EA000A946A046F0BD564B564ACD21564801F002
:100EB000EFFA564B534AD421534801F0E9FAC043A4
:100EC00040440C2102F0D2FE002912D101239E439E
:100ED000B34633000026DA79AA4211D906215956C1
:100EE00000290CDB4A00521892001E003E4B9B1852
:100EF000F1E7474B434AE021434801F0C9FA1E009D
:100F0000002E3BD005AB434A1A80813A5A80062313
:100F1000F3560293002B18DABD20000205AB9B4666
:100F20009880029A9A71DD71019A0792301D210012
:100F3000FFF7ACFEB080B7717B00DB199B002A4F36
:100F4000FF185B4607CB07C7A1E77800C0198000F0
:100F5000254BC0180430321DB388D90A1C2907D18B
:100F60005B055915023149005118FFF78FFED5E78F
:100F7000294B2A4AA721244801F08AFA05AE1D4BC5
:100F800033807B000293D8198000174A90460200F4
:100F900042440392901C1849FFF778FE7080039A30
:100FA000101D5946FFF772FEB0801D4B5A46414650
:100FB000521A524153431B0DB371F571019A0792B6
:100FC000029B9C466744BF0047440ECE0EC7114BA0
:100FD0005A461380813B538001231C43A04656E7A9
:100FE000240100D0051601208C07002000ED00E050
:100FF000CD01001000A1FFFFBC07002000BDFFFFD6
:1010000018DB0010DCDC001090DA001040DB001070
:1010100068DB001001480000DCDB0010CCDC0010B5
:10102000AAAA0000F0B5CE46474680B583B00600B8
:101030000D00EFF3108872B6564B1B68002BFBD0E7
:10104000BFF35F8F544B9A6834001034A300D75815
:10105000524B9F4207D0AF4200D199E00197504BCD
:10106000FB1A2F2B09D9424639003000FFF7FAFD51
:1010700003B0C0BCB946B046F0BD3000FFF74AFE31
:10108000814600213000FFF761FEBFF35F8FFFF75D
:10109000EAF8002801D0844211D10123019C9C432D
:1010A0000022A368AB4212D00622A256002A0DDB12
:1010B00053009B189B002200394CE418F1E72C21C7
:1010C000384B394AFF31394801F0E2F92200AB428E
:1010D00057D106256557002D39DB6B005B199A0047
:1010E0002F4B9B189A68A260DA79E27106229A5611
:1010F000A2719B795BB2002B10DABD200002A080A8
:101100006B005B199B00264AD318294A1178997104
:10111000157049463000FFF719FEA4E7201D6B004B
:101120005B199B001E4A9B181A1D9B88D90A1C2913
:1011300007D15B055B15023359005118FFF7A6FD77
:10114000DDE71C4B1C4AA721184801F0A1F9002833
:1011500012D1002A0ED0FF239371184B9380144AAA
:101160001378A371164B0E49641A644163431B0D37
:101170001370CEE7094FF2E7201D1249FFF7AAFDD1
:10118000C7E76021104B084AFF31084801F080F999
:10119000024F68E7240100D000ED00E0CD0100100F
:1011A0008C070020F4DB0010ACDC001090DA00109B
:1011B00005160120DCDB0010CCDC001000BDFFFFB9
:1011C000AAAA0000C607002018DC001070B50400B1
:1011D000012606432D4BF31A2F2B28D8FFF743F88F
:1011E00000282BD0EFF3108C72B6294B1B68002B14
:1011F000FBD0BFF35F8F274D22002449521A524182
:1012000055432D0D6DB2244B9B6880001B58B34293
:101210001BD00022032A32D853009B189B001B4985
:10122000CB189B795BB2AB421FD00132F2E7C221EF
:101230001A4B1B4A49001B4801F02AF988211A4B16
:10124000174AFF31174801F023F9134B9B68174ADF
:101250001A50174B1A78A2711D70BFF35F8F0C4B99
:1012600000221A608CF3108870BD08005300991892
:1012700089004118FF268E710E4A8A80E9E7CC2149
:101280000D4B074A4900074801F002F98C0700207E
:10129000240100D0AAAA000000ED00E020DC00102C
:1012A00078DC001090DA001048DC0010CD0100104E
:1012B0000516012000BDFFFF54DC00100022044B86
:1012C00002E0044902C30132072AFAD97047C04636
:1012D00000E400E08080808000B583B00100D0236E
:1012E0001B061B680648C018064B00930523002206
:1012F000FFF73DFC002801DB1F23181A03B000BDD7
:10130000F81501205CDC001070B504000E0015001B
:10131000FFF78AFC0100200000F006F8A680E580B7
:10132000BFF35F8F70BD0000024B9C466144890093
:10133000016070474000003470B505000C000800E3
:1013400000F018FD200000F021FE0849200000F008
:1013500061FDFFF769FC064B9C46604480006860B5
:101360002C75A400034BE55070BDC0467D160010DF
:1013700040000034A81301200A4B1A68EFF31081D3
:1013800072B61368002BFCD0BFF35F8F054B1B6850
:10139000BFF35F8F00221A6081F3108840BF0020E6
:1013A00000217047C815012010B5002922D003681C
:1013B0001B7B99421ED8174B9C46614409018368E8
:1013C0009C4661440C684968002A19D003681B7B5D
:1013D0009A4215D883680F488446624412019A18CD
:1013E00010685368020001208B4201D80ED0002003
:1013F000C0B210BD084B094A3B21094801F048F82A
:10140000054B064A3B21064801F042F8A242EFD8BC
:10141000EDE7C046FFFFFF0F3CDE00104CE0001080
:1014200004DE001010B500291ED0037B99421BD8A2
:101430004B005B18033B0468A4466344002919D0A1
:10144000002A1DD0914221D0002A25D0047BA2423F
:1014500022D8046850008018033820188170197849
:1014600000291FD11A7010BD104B114A6821114874
:1014700001F00EF8104B114A6F310E4801F008F8D8
:101480000F4B0E4A70210B4801F002F80D4B0B4A2E
:101490007121084800F0FCFF044B054A682105480B
:1014A00000F0F6FF41701A70DDE7C04670DE0010F4
:1014B000B8E000108CDE0010D8DE001094E00010C0
:1014C000E4DE0010F0DE001070B506000D00140020
:1014D000002914D0002A14D0806873689847002827
:1014E00006D0220029003000FFF79CFF280007E00B
:1014F0002A0021003000FFF795FF200000E01000D7
:1015000070BD0800FCE70000F0B583B00500009254
:1015100001930AAB1C780BAB1F78002C26D0036814
:101520005A7B944207D10123002B19D1002C3BD1C7
:10153000200003B0F0BD002C0CD01A7B944209D8D7
:101540001A6863001B19033BD3189B78002BEBD060
:101550000123E9E73E4B3F4A68213F4800F098FFEE
:101560003E4B3F4A65213F4800F092FF03689C7B59
:10157000002CDBD012D01A7B94420FD862001219D3
:10158000033A19688C46624451789973002900D156
:10159000D9730023937053701370C7E72C4B2D4AF7
:1015A00068212D4800F074FF002C3AD02B681B7B7B
:1015B0009C4236D82C4BE3181B01AA68944663441E
:1015C000009A1A60019A5A60089A9A60099ADA6039
:1015D0002E68002C2BD030D0337B9C422DD863005A
:1015E0001B19033B32689446634400229A705A7078
:1015F0001A70717B22003000FFF766FF707384421F
:1016000000D095E7287D009A019B00F04BFC061E58
:1016100001D0002F17D00C9B002B00D188E71E7043
:1016200086E7124B124A3B210E4800F031FF114B66
:10163000114AA521084800F02BFF054B054A6821F7
:10164000054800F025FF2868210000F053FEE2E77E
:1016500070DE0010B8E000108CDE001008DF001013
:10166000C4E0001004DE0010FFFFFF0F3CDE00109E
:101670004CE0001000DE0010A8E00010F0B5DE46DF
:1016800057464E464546E0B58BB009900023089377
:101690008200B24BD658370032E0B14BB14A3F21FD
:1016A000B14800F0F5FEB14BB14A3B21B14800F022
:1016B000EFFEB14BB14A8C21AE4800F0E9FEB04BD1
:1016C000AE4A9021AB4800F0E3FEA84BAD4A402162
:1016D000A84800F0DDFE2A686B68099800F0E2FB7C
:1016E00000239A4698467B68BFF35F8F00221A60FA
:1016F00086F310884346002B51D1002800D126E103
:1017000000F044FB02000B1EC7DB00200021069006
:1017100007917868EFF3108672B601680029FCD053
:10172000BFF35F8F396888464C7B002C32D0BAD02B
:10173000097B8C42B7D8944965182D01B9688C464D
:10174000654428686968801A99410029C3DC01D181
:101750000028C0D10021404600F0C2FDA042A8D11F
:101760002A686B6806920793AB689846EB689A46BE
:101770004346002BA3D0002CA7D03B681B7B9C4288
:10178000A3D8631EFA68D35C08931B021843386120
:101790000020A8E700239A4698460020A3E7089B6C
:1017A0001B022343994651461800C04705000E000E
:1017B0007A68EFF3108B72B6136859424B41D9B275
:1017C000002BF9D1BFF35F8F002E26DB002E52DDF8
:1017D0003B69002B53D04B4572D100F0D7FA020081
:1017E0000B1E73DB0100180052197341984202D896
:1017F00004D1914202D901225242D317002B6BDB54
:101800000021049101310391029451460191414616
:1018100000913800FFF778FE49E03B69002BD5D0F6
:101820004B451CD1069A079B10001900521BB3416F
:10183000994202D804D1904202D901225242D317D0
:10184000002B12DB002104910131039102945146D7
:101850000191414600913800FFF756FE27E04B4BBF
:10186000464A9F21434800F013FE3D4B3D4A3F212D
:101870003D4800F00DFE002E01D1002DA8D13A68A0
:10188000002C45D0537B9C422CD1012100293FD113
:10189000D37B002B42D1D473002C52D03B681B7BEE
:1018A0009C424ED8FA68013C135D01331355002366
:1018B0003B617A68BFF35F8F13608BF310881FE77B
:1018C000324B2E4AA2212B4800F0E2FD244B254A40
:1018D0003F21254800F0DCFD214B224A3F212248D0
:1018E00000F0D6FD002C0DD0137B9C420AD863007B
:1018F0001B19033B1068844663449B78002BC5D0BA
:101900000121C3E7224B234A6821234800F0C0FD90
:10191000224B234AF621204800F0BAFD002B0AD0C2
:10192000117B8B4207D85900CB18033B11688C46BA
:1019300063445C70AFE7164B164A6821164800F006
:10194000A7FD0A4B0F4A40210A4800F0A1FD0BB049
:10195000F0BCBB46B246A946A046F0BDA813012084
:1019600010DD001018E000102CDD00103CDE00102F
:101970004CE0001004DE001030DF001030E00010FA
:1019800048DF001070E00010FFFFFF0F54DF001071
:1019900070DE0010B8E000108CDE001090DF001048
:1019A00084E0001010B50A4B5B68002B04D00A21BC
:1019B0000848FFF7B9FC10BD054C2300064A10216A
:1019C000206800F0ADFB03212000FFF7B5FCEEE737
:1019D000D4070020C8150120A913001010B5064B2C
:1019E0005B68002B01D0044810BD044B044A5C2105
:1019F000044800F04DFDC046D4070020B4DF0010BD
:101A000058E0001004DE0010F0B5DE4657464E46A2
:101A10004546E0B58BB0804616001F00149B9A46E1
:101A2000159B994616AB1B789B461F2302AA94462A
:101A3000634400221A7032E0002809D0424612683E
:101A4000127B904204D8421E4146C9688A5C48E035
:101A5000434B444A4021444800F01AFD0798002BAC
:101A600075D05B46002B72D04946D04704000D006C
:101A700003000B4300D171E0002946DB00F086F93A
:101A800006000F1E55DB36196F41B94202D804D14A
:101A9000B04202D901267642F717002F4FDB4346AA
:101AA0005A68EFF3108472B6136859424B41D9B2A9
:101AB0000791002BF8D1BFF35F8F1F3302AA944622
:101AC000634404930023039302934B4601935346CC
:101AD000009332003B004046FFF716FD031EABD1DA
:101AE000020041464968BFF35F8F00250D6084F313
:101AF0001088002B29D01F2302A98C4663441B7831
:101B0000002BABD112021043A9E732003B00361B79
:101B1000AF41BB4202D804D1B24202D9012676427B
:101B2000F717002FBBDA114B114A3F21114800F083
:101B3000AFFC0E4B0E4A3F210E4800F0A9FC0B4BA8
:101B40000B4A3F210B4800F0A3FC012040420BB0A0
:101B5000F0BCBB46B246A946A046F0BD0798F6E7E2
:101B60003CDE001070E0001004DE001010DD0010FC
:101B700018E000102CDD0010F8B504004268EFF307
:101B8000108572B6136858424341D8B2002BF9D180
:101B9000BFF35F8FCBB22268567BB3421BD10120CB
:101BA000002848D0206988422BD0090AC9B2002BEE
:101BB0002ED02068007B83422AD8581EE668305C0D
:101BC00088422BD000206368BFF35F8F00221A6029
:101BD00085F31088F8BD002B0DD0167BB3420AD8D0
:101BE0005E00F618033E1768BC466644B678002EC1
:101BF000D6D00120D4E7134B134A6821134800F0D4
:101C000047FC8521124B134A4900134800F040FC61
:101C1000124B134A4021104800F03AFC1900100002
:101C200000F068FB0028CED112210E4B094AFF318B
:101C3000094800F02DFC23698B42C4D100232361A5
:101C4000C1E7C04670DE0010B8E000108CDE001066
:101C5000D8DF001000E0001004DE00103CDE0010B1
:101C600070E00010FCDF001070B584B006000C00BE
:101C7000FFF7B4FE002302930193194B0093320047
:101C80002300FFF7C1FE051E11DD20BFFFF7A6FEF2
:101C90002900FFF771FF134B5B6A9C421BD8114A66
:101CA000926AB2421AD29C4213D0012014E00D4B2A
:101CB0005B6A9C4209D80B4A926AB24207D29C42A4
:101CC00001D0012008E0002006E0002004E001200F
:101CD00002E0002000E0002004B070BD0120FBE71E
:101CE000791300100040054070B5EFF305833F20E5
:101CF00018401038EFF3108C72B6194B1B68002B8C
:101D0000FBD0BFF35F8F012319008140154A516357
:101D1000154A12781400C440234214D0114B5C6A57
:101D20008300124D5B599C4206D38300104C1B5913
:101D30008A430D490A7007E00A4A031D9B0099581F
:101D40009950002300E00023BFF35F8F044A002175
:101D500011608CF31088002B00D0984770BDC046EE
:101D6000280100D0004005400A160120D4150120AA
:101D7000901A002010B50100024A0348FEF7DEFE6B
:101D800010BDC046E8E0001002160120044B5B6A5B
:101D9000034A906A1900536A9942F9D17047C046C4
:101DA00000400540084B5B6A01E0074B5B6A8B42D1
:101DB000FBD301E0044B5B6A8B4203D1024B9B6A6D
:101DC0008342F7D37047C0460040054070B5040019
:101DD0000D00FFF7DBFF02000B0020002900801838
:101DE00059418B4202D804D1824202D9012040429B
:101DF000C117002902DBFFF7D5FF70BD024B034A74
:101E00003F21034800F044FB10DD001090E100107A
:101E10002CDD001070B504000D00EFF3108672B6D3
:101E20001B4B1B68002BFBD0BFF35F8F002D1CD01A
:101E30002000FEF79BFF174B83420BD019002000B8
:101E4000FEF7AEFF01212000FEF780FF0123A34033
:101E5000114A1360A400114BE550BFF35F8F0C4B88
:101E600000221A6086F3108870BDA2000B4B00217F
:101E7000D1500122A2400A490B7893430B700549C7
:101E80002000FFF7CFF800212000FEF75FFFE4E716
:101E9000280100D0E91C001038600540901A00208D
:101EA0000A160120F0B5DE4600B584B00400150026
:101EB00001921E000293FFF769FF03958E4202D83C
:101EC0004ED185424CD9EFF3108B72B6274B1B686D
:101ED000002BFBD0BFF35F8F254A17780125A54063
:101EE000EBB23B431370234B5D63221D92000199BB
:101EF000D150A2002049029850501B6A2B4212D1A7
:101F00001C4B1B6C2B4208D00020BFF35F8F174B7C
:101F100000221A608BF3108823E0184B184AC12165
:101F2000184800F0B5FAFFF731FF8E4214D802D1FD
:101F3000039B834210D80E4B1B78BB420ED00D4B37
:101F40001D625D631F2004400123A3400E4A1360FD
:101F5000074B1F701E38D8E70020D6E70120D4E7D2
:101F6000012004B080BCBB46F0BDC046280100D0B3
:101F70000A16012000400540D41501200CE1001094
:101F800074E1001030E1001080E200E0EFF3108C0B
:101F900072B60B4B1B68002BFBD0BFF35F8F012386
:101FA0008340084A136208490A789A430A70BFF3CB
:101FB0005F8F034B00221A608CF310887047C04675
:101FC000280100D0004005400A16012010B5002964
:101FD0001ED0037B99421BD84B005B18033B04685F
:101FE000A4466344002919D0002A1DD0914221D073
:101FF000002A25D0047BA24222D804685000801811
:10200000033820188170197800291FD11A7010BD6B
:10201000104B114A6821114800F03AFA104B114A4E
:102020006F310E4800F034FA0F4B0E4A70210B4806
:1020300000F02EFA0D4B0B4A7121084800F028FAE7
:10204000044B054A6821054800F022FA41701A70D5
:10205000DDE7C04670DE001094E200108CDE001058
:10206000D8DE001080E20010E4DE0010F0DE001088
:1020700070B506000D001400002914D0002A14D0F9
:10208000806873689847002806D022002900300035
:10209000FFF79CFF280007E02A0021003000FFF72F
:1020A00095FF200000E0100070BD0800FCE7000074
:1020B00010B50023437301338373037BC373012380
:1020C000027B9A4214D9002B0CD0027B934209D890
:1020D0005A00D218033A01688C4662440133DBB2DD
:1020E0005370EDE70B4B0C4A68210C4800F0D0F917
:1020F000002A09D0924207D8016853009A18033A7F
:102100008A180023537010BD024B034A682103480C
:1021100000F0BEF970DE001094E200108CDE0010BA
:1021200010B5017342608360FFF7C2FF10BD00006D
:1021300070B50400081E00D170BD002934D0237B87
:10214000994231D84B005B18033B226894466344A4
:102150005A78002AF0D02DD0237B9A422AD85300F7
:102160009B18033B21688C4663445D7800215970BD
:10217000002825D0237B984222D843001B18033B1C
:1021800021688C4663440021597001002000FFF74C
:102190006FFF060029002000FFF7CAFF0200310090
:1021A0002000FFF765FFC7E7084B094A6821094887
:1021B00000F06EF9054B064A6821064800F068F900
:1021C000024B034A6821034800F062F970DE0010F8
:1021D00094E200108CDE001070B505000C001600B3
:1021E000002928D02DD0037B99422AD84B005B18B8
:1021F000033B0268944663445A78002A27D19A78B0
:10220000002A2AD11978FFF793FF0300002E03D08C
:10221000EA7B002A27D1EC73002B37D1002C49D060
:102220002B7B9C4246D82B6861000C19033C1C197F
:102230000023637070BD224B224A3821224800F0EF
:1022400027F9224B224A6821224800F021F9224B2B
:102250001C4A3A211C4800F01BF9204B194A3B212B
:10226000194800F015F9002A0AD0297B8A4207D8BC
:1022700051008A18033A29688C4662445470CAE7B0
:10228000124B134A6821134800F002F9002B0BD0BF
:102290002A7B934208D843001B18033B2A689446C4
:1022A000634400229A70B9E7084B094A682109483B
:1022B00000F0EEF8054B064A6821064800F0E8F801
:1022C000A8E100106CE20010B0E1001070DE001018
:1022D00094E200108CDE0010E8E1001010E2001023
:1022E00070B504000A00457B2900FFF775FF607395
:1022F000280070BD70B50400002967D0437B8B4275
:102300000ED0002911D0037B99420ED84B005B18E8
:10231000033B0268D0188378002B0CD1002056E0D4
:102320000121FFF7DDFF012051E0294B294A6821F7
:10233000294800F0ADF8002B20D0227B93421DD815
:102340005A00D318033B2268D2182568EB5C8B42F5
:102350001AD0002B1BD0227B934218D85A00D318D6
:10236000033B2268D21853788B4216D0002BF0D151
:102370001A4B1B4A67211B4800F08AF8144B154A78
:102380006821154800F084F84378137007E0104B7B
:10239000104A6821104800F07BF8437853700023FE
:1023A0008370437001222000FFF716FF0200617B5B
:1023B000814205D02000FFF75BFE6073012006E03C
:1023C000094B074A6D21074800F062F8002070BDF4
:1023D00070DE001094E200108CDE001054DC00105F
:1023E00054E20010B0E1001034E2001010B5040017
:1023F000FEF71AFC01002000FEF796FFFF23237171
:10240000BFF35F8F10BD10B50400FEF70DFC010097
:102410002000FEF789FFFF23237100236371BFF3C0
:102420005F8F10BD034B9C46614489000160BFF380
:102430005F8F70474000003410B504000120FEF7A4
:1024400001FC01002000FFF7EDFF10BD00BEFDE71D
:1024500003000A4A1268002A08D0084A1068C31804
:10246000074A9A4206D3054A13607047034A054952
:102470001160F2E701204042F7E7C0469C0C0120C2
:10248000000004200C16012010B5FFF7DFFF00004C
:1024900010B582B00C001900002A0CD0084B002A9D
:1024A0000BD00192009323000200064802F014FDB5
:1024B0000120FFF7CBFF044BF1E7034AF1E7C046E9
:1024C00068E3001078E3001030D8001070B52B4B93
:1024D0002B4A1A602B4B2C4A1A602C4B9A682A4BB9
:1024E0009343FAD12A4C01E008CC9847294B9C42EF
:1024F000FAD300F001F9234B274A1A60234B9B685B
:10250000DB43DB01FAD1254B40229A675A671A67F1
:10251000DA66234C09E0234B234A83212348FFF743
:10252000B7FF2000FFF762FF0834214B9C4209D21D
:102530002368002BF5D0012BEDD12000FFF763FFBE
:102540000834F2E71B4CA1681B4DC022280002F0A2
:102550001BFBA560FDF787FE002800D000BEFEF73C
:1025600039FBFEF7ABFEFFF71DFA144C01E008CC77
:102570009847134B9C42FAD370BDC04600E0004020
:10258000BFCDFBFE00F00040FE7F3C0000C00040DD
:10259000A8130020B8130020FFFFFF0100F0014046
:1025A00088130020A8E300101CE40010C8E300100A
:1025B000A813002000ED00E000000020B813002068
:1025C000C01300200FB400B583B0084802F052FCDD
:1025D000049B002B07D005A90191180002F05AFCBA
:1025E000034802F047FC0120FFF730FF0CE4001025
:1025F00000FC0010F8B5DE4657464E464546E0B5AD
:1026000005000F0092460A9A93424ED31A0E914645
:102610001E020A9A00233000494601F069FB8046F9
:102620006C006419A4002F4B9C4664446368834289
:1026300000D260602B1FDBB29B46012B3BD9C0232D
:102640009B012343802212011A60AB00264A99584D
:10265000002905D0506901F009FB01300138FDD196
:1026600053465A0123685A40E0231A4080235B01F5
:1026700023431A605A46012A28D980239B01234309
:10268000802212011A6043466360424600233000F4
:10269000494601F02DFBAD00134B58510120F0BC11
:1026A000BB46B246A946A046F8BD104B104A2D21A4
:1026B0001048FFF7EDFE012FC1D1C0239B0123433A
:1026C00003221A60A368DB07FCD5C9E721687940BB
:1026D00003220A401A60A2680123BB401342FAD0C9
:1026E000CBE7C04600800040F40B01202CE4001032
:1026F00084E4001040E4001030B583B00C2000F0FA
:1027000021F9FEF75DFA00280DD0002304E09900BE
:102710002D4A2E4888500133092BF8D92A4B2C4AD0
:102720005A6203B030BD2B4B00229A6700F07CF94F
:10273000294B01221A60274B5B6C012BFBD1274BE5
:1027400003221A60234B9B6B012BFBD101330093B7
:102750000433234A0121234800F054F80523009351
:10276000214A0121214800F04DF8214B009300221D
:1027700002210420FFF73EFF1E4D00952B00002292
:1027800001210520FFF736FF104C009423000022A2
:1027900000210720FFF72EFF0094230000220021D4
:1027A0000820FFF727FF0A4B009323000022002197
:1027B0000920FFF71FFF00952B00002200210620B3
:1027C000FFF718FFADE7C046F40B0120006CDC02F8
:1027D0001BB70000008000403CB0004030B000401B
:1027E000002F685900800240008C864700C00240DC
:1027F000001BB700405973078000014BC058704759
:10280000F40B0120F0B5C64600B504000F00904659
:102810001D000C2001F02AFA06003D4A42443D4BBF
:102820009A4243D843011B1A9901C91AC9000918D1
:102830008901404601F01AFA0200103A98235B0021
:102840009A4239D86B1E062B3CD8069B013B062BBF
:1028500038D8069B9D423BD343461A09B2423DD32A
:102860002D04069B1E0335432368002B3CDB2A4BBB
:102870009C424AD080225201284B1A60284B1A6091
:10288000284B9B6811009943FAD12760A060231D53
:10289000C02292011A43212313602368002BFCDA23
:1028A000E5600823136080BCB846F0BD1E4B1F4A8C
:1028B00011211F48FFF7ECFD1E4B1C4A19211C4833
:1028C000FFF7E6FD1C4B194A1C211948FFF7E0FDF4
:1028D0001A4B164A22211648FFF7DAFD184B134A05
:1028E00025211348FFF7D4FD22683F231340BB4244
:1028F000BDD1A3681B051B0D8342B8D1E368EE224E
:10290000D2021340AB42B2D1CDE780229201B3E7AD
:1029100080E84BD380F8A93200C0024000E00040BC
:1029200000F0004000C0004094E40010D0E500102A
:10293000F4E4001034E5001050E500109CE50010B0
:10294000B4E5001080239B000343014AD362704723
:1029500000800540024B1A68024B5A607047C0461F
:10296000A01001200080054010B50200164B802009
:10297000C0051860154B1648186000290AD0154B81
:10298000E021C9041960002A09D1124B80221206E5
:102990001A6010BD0C4BE021C9041960F3E7530124
:1029A0009B1A9800801800010B4B186080235B0471
:1029B000984202D3084B094A1A60FFF7CBFF054B38
:1029C0008022D2051A60E4E700B0054008200140EB
:1029D000FCFF010000A00540A0100120FFFFFF0048
:1029E00010B5030010000C4A8024E4051460002B8D
:1029F0000DD001221343094A094CD461094C5C40B3
:102A00001462516293620021FFF7AEFF10BD034BC9
:102A10000022DA61F7E7C04600B0054000800540BB
:102A2000D3C007B02D3FF84F064BAA2212011A60FF
:102A30002F22DA60044B054A1A60024B5B68002BB8
:102A4000FBDA7047004002400060024000B0FA002C
:102A50009A4200D288547047704710B5002802D0BF
:102A60000B684968984710BD0100002007E083000B
:102A70001B185B00501C08601078C01830380A68BA
:102A80001378303BDBB2092BF1D97047F0B5DE4645
:102A900057464E464546E0B583B093461F000C9B13
:102AA0009A460D9C0E9B99460F9B9B0703D0B846F8
:102AB0000F00060022E00192A34688464E46B94622
:102AC0000700B44207D2551C4B4641462020B84768
:102AD00001342A00F5E73D004F465C46019B9B46CA
:102AE000B1464646B84637002E0007E0013C551C6B
:102AF0005346185D43463900B0472A00002CF5D1F3
:102B000035003E0047460F9B9B0707D4100003B0DB
:102B1000F0BCBB46B246A946A046F0BDB0464E4604
:102B2000B9462F005D46531BB342EFD2541C4B46AF
:102B300041462020B8472200F5E7F0B5CE4647468B
:102B400080B585B0944698460C9D0D9C0EAB1B78C5
:102B50009946109A119B129EB7071CD4002B0CD0DB
:102B6000F7070AD54F46002F02D10C37374204D061
:102B7000013B02E030272F550134944201D21F2C33
:102B8000F8D9F70707D59C4205D21F2C03D8302768
:102B90002F550134F5E7F70615D5770505D4002C38
:102BA00003D0944224D09C4222D00F9A102A2BD0DA
:102BB0000F9A102A30D00F9A022A35D01F2C02D833
:102BC00030222A5501341F2C05D84A46002A31D01C
:102BD0002D222A5501340396029301940095434611
:102BE0006246FFF753FF05B0C0BCB946B046F0BD22
:102BF000621E012C06D00F9F102F01D01400D4E7C5
:102C0000023CD2E71400D0E7B206D1D41F2CCFD8B3
:102C100078222A550134D1E7B206CCD51F2CCAD868
:102C200058222A550134C9E71F2CC7D860322A55CB
:102C30000134C3E7720703D52B222A550134CAE7B2
:102C40003207C8D520222A550134C4E7F0B5DE4644
:102C500057464E464546E0B593B081468A460892AF
:102C600009931CAB10CB1B789B461E9D219B98465D
:102C7000002C03D1102342469A4390468023DB0068
:102C800046461E4042461A4212D0002C22D0002650
:102C90000EE03033D9B2771C0AAB995529002000D9
:102CA00000F0E4FFAC4216D31F2F14D83E000400FE
:102CB0002900200000F0DAFFCBB2092BE9D9424607
:102CC000920605D54121C918C9B20A39C9B2E2E74D
:102CD0006121F8E7270043460693209B05931F9B3D
:102CE000049303955B46029301970AAB0093099BFB
:102CF000089A51464846FFF720FF13B0F0BCBB4688
:102D0000B246A946A046F0BDF0B5DE4657464E464F
:102D10004546E0B595B0089009910A920B931E9E26
:102D20001F9C20AB1B789B46229B9946239D269B8C
:102D30009A463300234303D1103352469A439246B6
:102D40008023DB0057461F4052461A4219D03300F9
:102D500023432DD0002714E03033DAB27B1C984691
:102D60000CABDA554A462B003000210000F0C0FFC2
:102D7000A5421FD819D043461F2B1BD84746060033
:102D80000C004A462B003000210000F0B1FFD3B206
:102D9000092BE1D95246920605D54122D218D2B26A
:102DA0000A3AD2B2DAE76122F8E7B145E3D901E0A5
:102DB0000023984653460693259B0593249B049332
:102DC0004B4603935B460293434601930CAB00933F
:102DD0000B9B0A9A09990898FFF7AFFE15B0F0BC53
:102DE000BB46B246A946A046F0BD0000F0B5DE469F
:102DF00057464E464546E0B591B083468A460C920A
:102E000098461A9C08941B9D099522002B002000CF
:102E1000290001F0FCF9002800D0E5E0012252422F
:102E2000D74B2000290001F0EDF9002800D0DBE0AD
:102E300001225242D34B2000290001F0CDF9002895
:102E400000D0D1E000220023089E3000099D290017
:102E500001F0C2F9002800D0DDE008980999069039
:102E600007918023DB001E9A1A400D921E9A1A4287
:102E700001D106231C930698079904000D000A004F
:102E80000600024300D1D1E0080D4005400DBE4CC4
:102E9000A44660440A03120BBC4B13431F0001F00D
:102EA000C9F9BB4ABB4B01F054F9BB4ABB4B01F01B
:102EB00029F904000D000022B94B3000390001F05F
:102EC00018F9B84AB84B01F044F902000B00200091
:102ED000290001F017F901F0C5F9814601F0AAF9BE
:102EE00004000D00B14AB24B01F033F90022B14B9E
:102EF00001F008F901F0B6F90600AF4AAF4B200027
:102F0000290001F026F904000D00300001F092F9CB
:102F1000AB4AAC4B01F01DF902000B002000290068
:102F200001F0E7F804000D0002000B0001F011F9B8
:102F30000A900B91A44BF31800261F0522002B00CA
:102F40002000290001F0DEF80E900F9122002B00E6
:102F500000208021C90501F0CCF804000D000022FA
:102F60009A4B0A980B9901F0D6F80022984B01F081
:102F7000C9F802000B000A980B9901F0CCF8002266
:102F8000944B01F0BFF802000B000A980B9901F076
:102F9000C2F802000B002000290001F0B3F8020083
:102FA0000B000E980F9901F0B6F80022774B01F054
:102FB000A9F832003B0001F0CCF806000F00040035
:102FC0000D00069A079B01F01DF9002830D001235F
:102FD0005B429C46E14400227D4B3000390001F009
:102FE0009AF804000D0023E01E9B04931D9B03939D
:102FF0001C9B0293089A099B0092019343460C9AEA
:103000005146584600F0FCF811B0F0BCBB46B24641
:10301000A946A046F0BD0023002406930794069617
:1030200080231B069C46654407951AE700239946B2
:103030004B466333C62B1ED804261E9B1B0526D584
:103040002B0023430FD0644A644B0698079901F084
:10305000D1F8002879D00022614B0698079901F039
:10306000BBF8002871D01C9B4B4506DD4A46981AD8
:10307000431E1C9303E00526DFE700231C938023F7
:10308000DB001E9A1A431E920026002399461D9BC0
:103090009E4264D29F1B02231E9A1A400A921E9AD5
:1030A000134202D0002E00D000274B46002B07D041
:1030B00022002B000698079901F02DF80690079141
:1030C000002200230898099901F086F8002848D1C9
:1030D000444B1E9A1340049303971C9B0293069B38
:1030E000079C0093019443460C9A5146584600F0C1
:1030F00087F8002E00D187E71E9B9B063DD545250E
:10310000441C4346020051462800D8474B46DA1774
:103110009B18534005220592013E0496002203921B
:103120000A3202924A46D00F019000934346220091
:1031300051465846FFF78AFD0A9B002B00D163E7F2
:1031400002005F460C9E1D9D54E01C9B002B9ED0F0
:103150000D9B002B9BD01C9B013B1C9397E70027EA
:1031600099E7069C079D22002900802000068446DE
:1031700061440B0006920793AAE76525C0E7C046A5
:10318000FFFFEF7FFFFFEFFF01FCFFFF0000F03FBD
:10319000FB799F501344D33FB3C8608B288AC63F46
:1031A0000000F83F61436F63A787D23F71A379099D
:1031B0004F930A400000E03F1655B5BBB16B02408B
:1031C000EF39FAFE422EE63FFF03000000002C40DC
:1031D00000002440000018402D431CEBE2361A3F4B
:1031E00080842E41FFF7FFFF541C434651462020A8
:1031F000B8472200931BAB42F6D3100004E7C04649
:10320000F0B5DE4657464E464546E0B595B00690C9
:10321000079193469946209F1E9A1F9B1000190004
:1032200000F0F5FF002831D101225242BF4B1E9819
:103230001F9900F0D1FF002837D101225242BC4B28
:103240001E981F9900F0DEFF00283DD10022B94BE7
:103250001E981F9900F0D6FF002850D10022B64BCF
:103260001E981F9900F0B8FF002848D100220023C3
:103270001E981F9900F0B0FF002850D100239846F7
:10328000229B5B0500D4B6E0002458E0229B039308
:10329000219B029303230193A84B00934B465A466C
:1032A00007990698FFF7F2FB0EE1229B0393219BFF
:1032B000029304230193A24B00934B465A4607996D
:1032C0000698FFF7E3FBFFE00423229A1A402299B5
:1032D0000B4210D09B4B002A0FD00422229903915D
:1032E00021990291019200934B465A4607990698FC
:1032F000FFF7CCFBE8E0944BEDE70322EEE7229BDF
:103300000493219B039302971E9B1F9C009301949F
:103310004B465A4607990698FFF768FDD4E01E9A77
:103320001F9B0020002100F0E4FE1E901F9101234E
:103330009846A5E70CAB30221A55013F01341F2CEB
:1033400001D8092FF6D81E981F9900F08BFF0500B1
:1033500000F070FF02000B001E981F9900F0C9FEDC
:10336000FA007A4B9B181A685B680A920B9300F07C
:10337000F0FE0890099100F099FF060000F056FF5A
:1033800002000B000898099900F0B3FE089009911B
:1033900000226F4B00F036FF00282ED0013630009F
:1033A00000F044FF02000B000A980B9900F01AFF8E
:1033B000002801D001350026002F2CD1280000F074
:1033C00039FF02000B001E981F9900F092FE0600C4
:1033D0000F0000225E4B00F0FFFE002846D10022C5
:1033E0005B4B3000390000F00DFF00283ED1EB07A9
:1033F0003CD501353AE0062746E70022544B0898B1
:10340000099900F0E9FE0028D6D1002E01D0F3077B
:10341000D2D50136D0E7AA461F2C11D8013F0A2188
:10342000300000F023FC651C30310CAB19550A212B
:10343000300000F01BFC092E0ED906002C00EBE733
:1034400055461F2C0CD87B1E002F09D00CAA30210A
:1034500011551F000134F4E72B0055461C00F0E71E
:103460001F2C03D80CAB2E221A5501341F2C10D858
:103470000A21280000F0D2FB661C30310CAB195534
:103480000A21280000F0CAFB051E01D03400EDE738
:1034900034000323229A1340012B1CD01F2C06D882
:1034A0004346002B32D00CAB2D221A550134229BFF
:1034B0000393219B029301940CAB00934B465A4615
:1034C00007990698FFF7E2FA15B0F0BCBB46B24682
:1034D000A946A046F0BD219B002B13D04346002BEC
:1034E00002D10C3313420FD0219B013B21931900D1
:1034F00003E00CAB30221A5501348C42CED21F2C83
:10350000F7D9CBE72199F8E72199F6E7229B5B07EA
:1035100004D50CAB2B221A550134C8E7229B1B079C
:10352000C5D50CAB20221A550134C0E7FFFFEFFFD1
:10353000FFFFEF7F65CDCD4165CDCDC1E8E5001042
:10354000ECE50010E0E50010DCE50010D8E7001025
:103550000000E03FF0B5DE4657464E464546E0B532
:1035600093B082468B4690461193002900D1EBE23E
:1035700000275546119B1878002800D1E7E225283E
:1035800009D07C1C43463A005946A847119B013399
:1035900011932700EEE7013311930024119A11785B
:1035A0000B00203BD8B2102803D88300D048C35862
:1035B0009F460B00303BDBB2092B2CD92A292FD098
:1035C00000230A93119B1A782E2A39D000239A4699
:1035D000119A1378683BD9B2122976D88B00C54965
:1035E000CB589F4601231C4301321192D6E7022398
:1035F0001C4301321192D1E704231C430132119282
:10360000CCE708231C4301321192C7E710231C4367
:1036100001321192C2E711A8FFF726FA0A90D1E70A
:103620001C9B1A1D1C921868002804DB0A90119B31
:1036300001331193C6E702231C4343420A93F6E782
:103640008022D20014435A1C11925A781300303B46
:10365000DBB2092B04D92A2A07D000239A46B7E700
:1036600011A8FFF701FA8246B2E71C9B1A1D1C92B3
:103670001868002804DB8246119B01331193A7E7E9
:103680000020F8E780235B002343511C11915278FE
:103690006C2A01D01C0018E0C0239B001C430131A0
:1036A000119112E080232343511C11915278682A12
:1036B00001D01C0009E0C0231C430131119104E03A
:1036C00080235B001C4301321192119B1878030088
:1036D000253BDAB2532A00D92CE29300864AD3580C
:1036E0009F4680239B001C4301321192EDE780230B
:1036F0005B001C4301321192E7E7782809D0582873
:1037000038D06F2838D0622838D010239C430A263E
:1037100000E01026582833D0692803D0642801D04F
:103720000C229443630501D50122944369282AD0D1
:10373000642828D0A30500D59FE0E30500D5B8E0B4
:10374000630600D4CAE01C9A111D1C911168FF2267
:103750000A4005940A9B0493534603930296002360
:103760000193009243463A0059462800FFF76EFA4B
:10377000070027E01026CDE70826CBE70226C9E799
:1037800020221443C8E7A30520D4E30550D46306E0
:1037900066D51C9A111D1C911168FF220A40D3178F
:1037A000D118594005940A9B0493534603930296FB
:1037B000D20F0192009143463A0059462800FFF784
:1037C00045FA0700119B01331193D3E61C9BDA1DC8
:1037D00007218A43110008311C91116853689C46E7
:1037E000DB170C930D930C9A0D9B100048400E9024
:1037F000624653400F930E980F990C9A0D9B801AB6
:1038000099410E900F9108940A9B07935346069393
:103810000496002305936346DA0F0292009001910B
:1038200043463A0059462800FFF76EFA0700C9E7F9
:103830001C9A111D1C911268D317D1185940059478
:103840000A9B0493534603930296D20F0192009170
:1038500043463A0059462800FFF7F8F90700B1E758
:10386000230605D51C9A111D1C910023D25E96E7F4
:103870001C9A111D1C91126891E71C9BDA1D0721EF
:103880008A43110008311C9108940A9B0793534600
:1038900006930496002305930293136854680093DB
:1038A000019443463A0059462800FFF72DFA0700D5
:1038B00088E71C9A111D1C9105940A9B049353469A
:1038C00003930296002301931368009343463A0042
:1038D00059462800FFF7BAF9070073E723060DD50C
:1038E0001C9A111D1C9112681204120C31E7C0467B
:1038F000F4E5001038E6001084E600101C9A111D53
:103900001C91126825E746281AD01C9B0733072212
:1039100093431A0008321C9204940A9A0392524666
:1039200002925C681B680093019443463A00594632
:103930002800FFF765FC0700119B0133119319E67E
:1039400020231C43E1E7672801D0472802D18023C8
:103950001B011C43452801D0472801D120231C43CB
:103960001C9B0733072293431A0008321C920494CD
:103970000A9A0392524602925C681B680093019473
:1039800043463A0059462800FFF730FA0700119BDA
:1039900001331193EEE502231A002240924623429E
:1039A0001FD001241C9B1A1D1C927A1C914618786A
:1039B00043463A005946A8475346002B16D1119B5F
:1039C000013311934F46D5E5561C434659462020F6
:1039D000B847230032005C1C9D42F5D83D0017001B
:1039E000E0E701233A002F000A9DF4E74A46A94682
:1039F0000A9D06E0571C434659462020C84734001C
:103A00003A00661CA542F5D84D469146D7E71C9B67
:103A10001A1D1C921B6899465346002B00D1013B8E
:103A20004E4601E0013613003278002A02D05A1EB9
:103A3000002BF7D14B46F21A10928023DB002600B0
:103A40001E401C4203D0524501D953461093022315
:103A50001A0022400B92234205D03A0037004C4610
:103A6000A946554620E03A00109B5F46B3462E001B
:103A700006E0551C434639002020B04723002A00A9
:103A80005C1C0A999942F4D835005E46BB461094F6
:103A900037004C46A946554606E01D000134561C29
:103AA00043465946C84732002078002804D0002FEA
:103AB000F4D06B1E002DF0D117004D460B9B002B50
:103AC00003D1119B0133119354E50A9F109B06E02B
:103AD000561C434659462020A847230032005C1C50
:103AE0009F42F5D81700ECE721231C431C9B1A1DAD
:103AF0001C921B6800930594082304935346039378
:103B0000102302930023019343463A0059462800AC
:103B1000FFF79CF80700119B013311932AE57C1CE9
:103B200043463A0059462520A847119B013311937B
:103B300027001FE57C1C43463A005946A847119BC5
:103B400001331193270015E50A4B9A4610E5AA4662
:103B5000474502D343465A1E00E03A0043465946C1
:103B60000020D047380013B0F0BCBB46B246A9468F
:103B7000A046F0BD592A001000B583B00093130091
:103B80000A0001000248FFF7E5FC03B000BDC04693
:103B9000512A001000B585B00290039101210093D5
:103BA00013004A4202A90248FFF7D4FC05B000BD49
:103BB0005B2A001001480421014B1847000800202F
:103BC000E53B001010B5010018231B881422108853
:103BD000984710BD10B5010018231B8816221088C5
:103BE000984710BDF0B5C64600B507000E00002589
:103BF0000123984600E00135B5420AD2AC003C19D9
:103C00002068FFF7DFFF20600028F4D100239846EA
:103C1000F1E7404680BCB846F0BD0000124A936F01
:103C20009B0815D29066D166002905D0FFE7FFE713
:103C3000FFE7516F106F704704B580210906C21766
:103C40005140002800D0C84309F07AFD002104BD8E
:103C5000F0B5146E556E576F166FFFF7E3FF1466DD
:103C6000556657671667F0BD000000D0114A936F84
:103C70009B0813D210665166002905D0FFE7FFE7C5
:103C8000FFE7516F106F704704B5002801D0002086
:103C9000C04309F055FD002104BDC046F0B5146EC7
:103CA000556E576F166FFFF7E5FF14665566576739
:103CB0001667F0BD000000D094464E4A926F9208FD
:103CC000624601D230E0C046F0B54A4EB56F6D088D
:103CD000FCD3346E756E776F366F00F025F894461E
:103CE000444A14665566576716676246F0BDC0467B
:103CF0009446404A926F9208624601D258E0C0460C
:103D0000F0B53C4EB56F6D08FCD3346E756E776FB1
:103D1000366F00F04DF89446364A1466556657677C
:103D200016676246F0BDC046002B24DB11D0002987
:103D30003EDA00B5C943404200D1013100F038F805
:103D4000C943404200D10131DB43524200D101332B
:103D500000BD002AEBD1002801D1002905D00020A8
:103D6000C90FC90701D1C043410800B509F0E0FC03
:103D70000022002300BD00B500290ADBDB435242CC
:103D800000D1013300F014F8C943404200D10131A1
:103D900000BDC943404200D10131DB43524200D152
:103DA000013300F005F8DB43524200D1013300BD7E
:103DB000002923D1002B18D1002A0CD0BC460D4F6E
:103DC00038667A6600210023FFE7FFE7FFE77A6F96
:103DD000386F67467047002801D00748010000B5DA
:103DE00009F0A6FC0022002300BD02000B00002009
:103DF00000217047000000D0FFFFFFFF002B00D024
:103E0000BFE0130C28D1002AE7D080B4114F3966E7
:103E10007A66FFE7FFE730B4040C7B6F396F1B0451
:103E200023433B667A66FFE7FFE7FFE7C04684B2BD
:103E30007B6F3D6F1B0423433B667A66FFE7FFE71A
:103E4000C04600232C042D0C7A6F386F001969418D
:103E5000B0BC7047000000D0F0B594460025140EA9
:103E600001D112020835140F01D112010435940F4B
:103E700001D192000235D40F01D152000135D40B8B
:103E80000134254F7C66254C3C660E0C93B2FFE74F
:103E9000FFE7FFE73C6F6643360C7703BE4673438C
:103EA000DF0B5B04C01AB941130C7343DB18C91A4A
:103EB000CE086643360CB64493B273431F0F1B0102
:103EC000C01AB941130C73431F0B1B05C01AB9412B
:103ED000860D8F023E436643360C092D24DB520AC1
:103EE0007243801A7703460A6643360C16235B1B1F
:103EF000DE40DF40BF1964466643821B70460435CE
:103F000006330100D940A840C01900D30131A242B4
:103F100006D20023F0BD0000000000D0FFFFFFFF2D
:103F2000121B0130F3D3F1E709277F1BFE406446E3
:103F3000A2B27243801A00D20139220C7243130CD0
:103F40001204821A99410B007046043513370100A0
:103F5000F940A840801900D30131002B02D1A242C0
:103F60000AD2F0BD013000D30131121BFAD2013B5D
:103F7000F8D1A24200D2F0BD013000D30131121BB2
:103F8000F7E7F0B51C0C00D080E00CB400251C0A4B
:103F900004D11B02160E3343120208351C0B04D148
:103FA0001B01160F3343120104359C0B04D19B00F7
:103FB000960F334392000235DC0B02D192185B411D
:103FC00001351C00971864410134464F7C66464C0D
:103FD0003C660E0CFFE7FFE7FFE7C0463C6F664319
:103FE000360C7703BE4697B27743C01B00D2013927
:103FF000C01B00D201399FB27743C91BC91B170CE4
:1040000077437E04FF0B801BB941CE086643360C14
:104010000C2D33DBB644120B1F053A431B0B97B232
:104020007743C01B00D201399FB27743C91B170CDD
:1040300077433E043F0C801BB941860D8F023E43FF
:10404000664329277F1BFE400C3D7746AF40BF19D2
:1040500030BCA2B2ABB272437343801A9941220CB6
:104060007243130C1204801A994102000B000137AD
:10407000001BA941F9D2781E0021F0BD0C277F1B3F
:10408000FE4077467F0BAF40FF19E0E700245D1C40
:1040900007D0144F7D663966FFE7FFE7FFE7FFE7CC
:1040A0003C6F95B29EB265436643401BB141150C0F
:1040B0001E0C6543664336042F0C3E432D04401B03
:1040C000B141994204D202000B0020000021F0BD52
:1040D00001D19042F7D3801A994101349942F2D329
:1040E000F6E70000000000D0FFFFFFFF484041401E
:1040F000484018B41B4B5B68FC46019308BD04DFC5
:10410000C743001018B4174B1B68FC46019308BD49
:1041100000DFD14300109446134A926F920809D2EF
:10412000624618B40F4BDB68FC46019308BD0CDFF8
:10413000894600100C4AF0B5146E556E576F166F15
:104140006246FFF7EEFF084A146655665767166722
:10415000F0BD18B4034B9B68FC46019308BD08DF13
:104160002D450010C4130120000000D0FFB55040C1
:104170004240504059404B40594000E0FFB5154F78
:104180004C00640D03D0BC4204D10C0314D80020B1
:10419000090D09055C00640D03D0BC4204D11C0369
:1041A0000AD800221B0D1B0501264B4009D44B40A9
:1041B00003D58B4200D18242FFBD9942FCD190428F
:1041C000FFBD0B43DB1803431343F5D0C943491824
:1041D000FFBD0000FF07000000B5FFF7CFFF8041E3
:1041E00000BDC04600B5FFF7C9FF01D9002000BDE2
:1041F000012000BD00B5FFF7B9FF01D9002000BDC7
:10420000012000BD00B5FFF7B1FF804100BD0120D6
:1042100040054A00121804D85A00121801D800208C
:1042200070470120704700207047000000210028DF
:1042300005D17047C1174840401AFAD0C90713B5D5
:10424000064B1B6898470CBC441CA2401005120B7F
:104250000349091B09051943114310BDC41401206A
:104260001F04000010B54C00620D8023D218DB0043
:10427000D21A5B057E2A10DD9E3A13DACC170903A9
:10428000490819435242D140640001341532202AB2
:1042900005DAD0400843604310BD002010BD084639
:1042A000604310BDC80FC018013810BD18B4044BCE
:1042B0005B6AFC46019308BD24DF3948001000000A
:1042C000C413012070B513231C78012C14D0012CC9
:1042D00014DC022C02DC1F4A1F4B9A641F48FFF7B4
:1042E00071FC1F4B186070BD99001A481A4A88501B
:1042F00001331F2BF8D9EAE70023FAE71948FFF743
:1043000069FC05001848FFF765FC023803789B003C
:104310007F2B19DD802229000F4800F035FC022C8C
:10432000D7D1124B1A88B5231B029A4209D1104BE0
:104330001A88104B9A4204D10F4B1A880F4B9A429D
:10434000C7D00020FEF73EF90D4B0E4A32210E4831
:10435000FEF79EF88D430010C41301204C3300007B
:10436000C414012053440000534600005438000098
:10437000D8380000494600009C380000594600002B
:1043800028E80010D0E8001088E8001007B5604663
:10439000002800D100BE01880A0A0230DF2AFAD1C3
:1043A000C9B2820804D3028840880004104300E0A8
:1043B0000068024A5050039007BD0000C41301205A
:1043C0000FB403BC0CBCF0B50124E407634000E06B
:1043D000F0B50C0DCF0F661E3605891B640503D39F
:1043E000C943404200D30131640D03D0661CF60A74
:1043F00007D0E41B00207F00791C89078912803CCC
:1044000024031D0DDF0F6E1E36059B1B6D0503D3A8
:10441000DB43524200D301336D0D03D06E1CF60A0C
:1044200007D0ED1B00227F007B1C9B079B12803D69
:104430002D032F1B661B58D4A446202E46DA2037A6
:104440001400BC401D00BD40F24033412A43801897
:104450005941CB0F05D0C943C043002264425041AB
:10446000514162464D0D28D10D0D07D100281FD0B6
:10447000241940414941013A0D0DF9D0640006D399
:10448000013000D30131002C01D140084000013A35
:104490000BD4941CE40A04D112051144DB0719441F
:1044A000F0BDD907204B194300E0D9070020F0BD2B
:1044B0000029DDD1002CDBD1F0BD0132C607400858
:1044C000CD0728434908002EE1D0D9E73C2E29DA50
:1044D000203E40371400BC4000D00124F240144379
:1044E0001A00BB401C43D317ACE7AC46202F08DAB8
:1044F00020360400B4400D00B540F840394128434F
:10450000A5E73C2F0CDA203F40360400B44000D031
:104510000124F84004430800B1400C43C117EAE706
:1045200010001900002494E70000F07FF0B50C0D96
:10453000661E3605891BE60A6405640D02D0651CFB
:10454000ED0A04D0002001210905803C2403A44683
:104550001C0D671E3F05DB1BE70A6405640D02D0D6
:10456000651CED0A04D0002201231B05803C2403B6
:104570007740644497B484B296B27443070C7E4388
:10458000150C6F4380B26843361802D30120000433
:104590003F183004350C00197D41844688B29AB228
:1045A00050430C0C62431F0C7C438EB27E43921925
:1045B00002D301263604A4191604170C36186741D5
:1045C00001BC81B29AB25143040C62431B0C5C43A0
:1045D00080B25843121802D301200004241810049A
:1045E000130C401863412D185E410020474106BC62
:1045F00088B293B258430C0C6343120C544389B2F3
:1046000051435B1802D301210904641819041A0CE0
:10461000091862416D1856410020474118BCF90243
:10462000720D1143F0026A0D1043ED020A0D03D121
:104630006D1940414941013B124E9B1B7600B3422C
:104640000ED26D0007D30130002671416646354316
:1046500001D1400840001B05C918E4072144F0BD02
:104660000BDA013306D1013004D101314F0D01D0F5
:104670004908F2E7E1070020F0BD013631050020CE
:10468000EBE70000FF030000F0B51C0D671E3F05BF
:10469000DB1BE70A6405640D02D0661CF60A04D031
:1046A000002201231B05803C2403D0252D06002673
:1046B000F6432E661E096E66CE0FF619B446490003
:1046C0004F0D02D07E1CF60A03D000200021403F8F
:1046D0003F033E1BB600B444013F7F05C91B490898
:1046E0002E6F013676089C02950D25437543ED1318
:1046F0007543AD1301356D10F603761B0CB4CC0277
:10470000450D2C43A2B2B3B25A43270C7B43350C60
:104710006F43A4B26C431B1902D3012424043F1934
:104720001C041D0CA4187D4124196D41009A91B2FE
:10473000ACB26143170C7C432B0C5F4392B25A43DB
:10474000A41802D301221204BF182204230C521809
:104750007B41019C6C431B19520ED9010A43440151
:10476000A01A81B2B2B2514303145A43360C7343B8
:1047700087B27743D617D21900277E4136049B199A
:104780001704160C7F185E417316ED18F30100260E
:1047900080337541A90F06D16400690AE8055B0AF8
:1047A000184309D22FE00422944480337541A90AAA
:1047B000A8059B0A184326D3404149412404009A86
:1047C000019B0D005543641B4343E41A95B286B226
:1047D0007543170C7E43030C5F4392B25A43B618DD
:1047E00002D301221204BF183204330C52197B4148
:1047F00052429C41002C02D4002201305141400819
:10480000CA071043490802B06246D7079210084B06
:10481000D218084B9A4203D212058918C919F0BD63
:104820000020002A01DC3900F0BD01331905F5E74D
:10483000FD030000FE070000002200B5203200F05A
:1048400004F8080000BD000000220B150AD410B5C2
:10485000944600F031F81414013400DA0021CB172B
:10486000144C20470020002170476244343A0CD495
:104870000C2A07DA04009140904052422032D44082
:10488000214310BDD843D94310BD203207D40C4674
:104890009440524220321141D040204310BD0800C4
:1048A000C917203203D452422032104110BD1800E3
:1048B000190010BD6B4800100A0DCC0F531E1B05CC
:1048C000C91A520503D3C943404200D30131520DE6
:1048D00003D0531CDB0A07D0121B00206400611CAC
:1048E00089078912803A1203014BD21A70470000DF
:1048F000FF03000051434343C9188C46110C83B297
:104900004B4310B4040C614392B280B250436243F3
:104910001C041B0C001910BC59411304120CC018C4
:1049200051416144704700004840414048400023E5
:104930009C46114B5B68184700239C460E4B1B6836
:1049400018470E4A936F9B0804D200239C460A4BDB
:10495000DB681847F0B5146E556E576F166FFFF78A
:10496000F4FF064A1466556657671667F0BD0023C4
:104970009C46014B9B681847C8140120000000D0DA
:10498000491A002808D1084670470000C10FC9071E
:1049900000D54042002817D0F44603B40B4B1B68E7
:1049A000984706BC81409E384042803107D20B06B2
:1049B00007D04900490AC005104308436047013049
:1049C000F8E7490A8902F5E770470000C41401209E
:1049D00000239C46014B5B6A18470000C814012065
:1049E00070B513231D782A48FFF7F4F80400012D51
:1049F00011D0012D09DDA31E1B789B007F2B40DD0C
:104A000080222100234800F0BFF82348FFF7DAF89E
:104A1000224B186070BD542201001E4800F0B4F80B
:104A20001F4B1A881F4B9A421CD1A7239B011A883F
:104A30001D4B9A4216D11D4B1A881D4B9A4211D11B
:104A40001C4B1A8894239B019A420BD11A4B1A884B
:104A50001A4B9A4206D11A4B1A681A4B9A4201D144
:104A6000152307E01848FDF7ADFD99001748094ADE
:104A7000885001331F2BF8D9144A064B1A62DA61A9
:104A8000B7E7134B134A42211348FDF701FDC04617
:104A900053460000C81401204C330000C414012008
:104AA000EE290000C40F0000C20D0000962B00008C
:104AB000C0B50000182B0000CC2A000010B5000083
:104AC000FC2C000051ED876430D80010DD4A001046
:104AD000E4E8001060E9001018E9001007B560462E
:104AE000002800D100BE01880A0A0230DF2AFAD16C
:104AF000C9B2820804D3028840880004104300E051
:104B00000068024A5050039007BD0000C8140120FD
:104B100070B504000A4E300008F042FE200008F094
:104B2000B1F90500300008F0FBFD002D05D02C196F
:104B3000044B9C4201D8280070BD0348FDF742FD9C
:104B4000881300200000042074E9001070B50400F0
:104B5000054D280008F024FE200008F09DF92800EB
:104B600008F0DEFD70BDC046881300200148042116
:104B7000014B184710080020E53B0010014B1B6853
:104B80001847000010080020014B5B681847000020
:104B90001008002010B50300080011001B6898479A
:104BA00010BD0000F8B507000D001600437C002B77
:104BB00002D0002400200CE0036811002800984770
:104BC0002DE03B7C10E0022115483B689847601CB3
:104BD0000134B44214DA002CF3DD2B19013B1B78AD
:104BE0000D3B5A425341DBB22A5D0A2AF0D1002B19
:104BF000EED1A042E7DA211A28183B689847E2E78D
:104C0000B04203DA311A28183B689847002E06DDB7
:104C1000AD19013D2B780D3B5A4253413B74F8BD11
:104C200044EA001070B505000368002B16D00C4B49
:104C30001C6805E0290004C92000FFF7B3FFE46801
:104C4000002C09D02368002BF9D0064B1B68002BE1
:104C5000F0D0A342F3D1EDE700232B6070BDC04636
:104C60008C0C0120980C012070B505000C000B681D
:104C7000802B05D021684B1C23606418257170BD02
:104C80000800FFF7CFFFF5E7F0B583B007000E008F
:104C90000092019328E0A368002B04D03100380073
:104CA0009847002827DCE468002C06D0134B1D68C9
:104CB000002DF0D0A542F6D1EDE70099019A104BF6
:104CC0005B6A9A4209D80E48806A88420FD29A429B
:104CD00001D0012302E0002300E00023002B08D1D3
:104CE00001200021FDF772F8064B1C68DCE7012368
:104CF000F4E70120404203B0F0BDC046980C01200B
:104D0000004005408C0C012010B582B0D0231B065A
:104D100000241C5701A9074808F01AFD002806D1F5
:104D2000019B9C4203D0034808F03AFD012002B0E9
:104D300010BDC0469013002010B5024808F0F0FCEA
:104D400010BDC04690130020F0B5CE46474680B552
:104D500083B006000D0090461C00FFF7D5FF81468A
:104D60006B1C05D0002C08D0194F1A4B1C6807E0AB
:104D7000300008F0CFFB0500F4E7174FF5E7E468D3
:104D8000002C17D02368002BF9D0144B1B68002B84
:104D900001D0A342F3D12A0031002000B847434696
:104DA000002BECD06B46D91D0A230B70012220008A
:104DB000B847E4E74B46002B07D16B1E9D41E8B294
:104DC00003B0C0BCB946B046F0BDFFF7B5FFF4E78D
:104DD000954B00108C0C0120A54B0010980C012065
:104DE00010B5030008001100002B05D1044B1A6810
:104DF0005B68FFF749FF10BD01204042FBE7C0465A
:104E0000E0E0001010B5030008001400013B012B86
:104E100006D8002300222100FFF796FF200010BDD6
:104E200001204042FBE70000094A01E00C331A0070
:104E30001368002B08D08342F8D1002907D1C3683A
:104E400013600023C36002E0002900D010607047A7
:104E50008C0C012010B5064B1C6801E09847E468F3
:104E6000002C03D06368002BF8D1F8E710BDC046D2
:104E70008C0C012070B5050008F04CFB04000023E9
:104E8000012201002800FFF75FFFFFF7E3FF20008A
:104E900070BD000070B5A2B004000E00FFF734FF33
:104EA00005008422002101A8FFF768FE33002200DC
:104EB00001A90848FEF76EFE040001A8FFF7B2FE44
:104EC000FFF7C8FF002D02D1200022B070BDFFF710
:104ED00033FFF9E7694C00100FB400B583B004A9A3
:104EE00001C90191FFF7D6FF03B008BC04B0184711
:104EF00010B500F073F910BD00B583B00A4B1A6805
:104F00005B68012101A8FFF7BFFE002803DB012831
:104F100003D101AB187803B000BD9121034B044AC3
:104F200049000448FDF7B4FAE0E00010E8E9001099
:104F300034EA0010F4E9001070470000014B002231
:104F40001A707047061601204B79FF2B0CD18B7914
:104F5000002B0BD1CB79012B0AD1082A0AD98A78E8
:104F6000054B1A70092000E0002070470020FCE784
:104F70000020FAE70020F8E706160120012070471C
:104F800070B504000D000348FEF71CFE0300290065
:104F9000200098475542000010B5002926D111790C
:104FA00053791B020B43124909788B4201D0002030
:104FB00010BD5378012B03D0022B10D00020F7E74F
:104FC0009178D3781B021943DB0503D54B0A0120E6
:104FD000984000E000207F231940FFF7D1FF6422B2
:104FE00000210020FDF7FCFC0120E1E70120DFE7C4
:104FF00006160120012303700048704748EA00109C
:1050000010B50B784878000218438A7812041043D0
:10501000CB781B0603439622D200934200D010BDEA
:1050200000210800FFF7ACFF30B583B005000C008D
:1050300001A9184808F08CFB002808D1D0231B06D2
:105040001B68019A9A4221D0124808F0A9FB00205F
:1050500001F054FE002807D1032464420D4808F0F3
:105060005FFB200003B030BD002001F069FE002886
:1050700002D103246442F1E722002900002001F05C
:105080006BFE041EEAD103246442E7E70324644272
:10509000E7E7C046CC15012010B50021054808F00F
:1050A00057FB002800D110BD01F0C0FB014808F0FB
:1050B00037FBF8E7CC150120F0B5C64600B582B045
:1050C00080460D0001A92E4808F042FB002808D1B7
:1050D000D0231B061B68019A9A420FD0284808F07B
:1050E0005FFB002001F00AFE002847D1254B00207D
:1050F000002118605960224808F012FB02B080BC01
:10510000B846F0BD01F092FB002001F039FE00200E
:1051100001F0F4FD0028EED0002001F0B3FE0028DD
:105120001DD0AC42E7DA2E1B002001F0ABFE0200DE
:10513000864200DC3200002AE4D0434619190020E0
:1051400001F084FE060001F071FB002001F018FE62
:10515000A419FCF71BFE0B4B18605960E1E7FCF744
:1051600015FE084B1E685F68074A002392197B41B1
:105170009942C0D8D5D19042D3D9BCE70024D0E71A
:10518000CC150120C014002020A1070010B50A4B47
:105190001A78D0231B061B689A4207D1074B187850
:1051A000FBF7DCFDFA208000002110BD044B054A0E
:1051B00032210548FDF76CF9091601200716012078
:1051C00060EA001008EB001088EA001010B5024BEE
:1051D0001878FBF7C3FD10BD0716012070B584B029
:1051E000D0231B061A782D4B1A702D4B1B7802F01A
:1051F0008FF82C48FDF7FAF80120FCF76DF8C0B2E3
:10520000294C20702949FBF7CBFD20780121FBF7C1
:105210009DFD0520FBF7B2FD041E0BD000222449A2
:105220000520FBF7E7FD01212248FFF7FDFD2000E7
:1052300004B070BDFCF7D2FB0600FCF7A7FD04002C
:105240000D1E1EDB0100FA229200002312196B4191
:105250009D4202D804D1914202D901225242D31771
:10526000002B14DB012102910021019112490091D0
:105270003000FCF7C9FB431E9841C4B20028D6D0C9
:10528000D1E70E4B0E4A3F210E48FDF701F90B4BBB
:105290000B4A3F210B48FDF7FBF8C04609160120D9
:1052A00040060110CC15012007160120995000106E
:1052B000CD510010200800208D51001010DD00108D
:1052C000F0EA00102CDD00100048704794EB00104D
:1052D0000048704740EB001010B50400154B1B78D8
:1052E000002B0ED0002C11D1134B144A5A800123ED
:1052F00001335B001BB2C022920013430E480380AF
:1053000010BD11210B4802F0D7FBEBE7052C0ED89E
:10531000A4000B4BE4580023122BE9D8E25C002ACE
:10532000E6D00133590004484252DBB2F4E70020D2
:10533000E6E7C046E4150120640C012009040000E2
:10534000A8EB001002007F201040D2094000801816
:105350004001014BC0187047A00C012010B582B06D
:1053600001AB074A1A80002406E001AB185DFFF785
:10537000E9FF0123C3700134012CF6D902B010BD3E
:105380000080FFFF10B5838B3F333F2293430229F8
:1053900015D0124C2268C260D31823609C0610D12D
:1053A0000F4C6240634080246401A3420FD88906F9
:1053B000114380231B0619434368196010BD5B002D
:1053C000E7E7084B084A54210848FDF761F8084B05
:1053D000054A56210548FDF75BF8C046A413012095
:1053E00000001050C0EB0010D8EC0010F0EB0010E3
:1053F00044EC0010F8B505000E001400FFF7A2FF02
:105400007F232B40EF0985707A427A414270002257
:10541000C27086838477012F0DD0DA0012498C4642
:1054200062448260826800211160002B09D14360D0
:105430000E4BC360F8BDDA000D498C4662448260B1
:10544000F0E7012F09D0013BDB000A4A9446634490
:1054500043602100FFF796FFECE7013BDB00064AC3
:10546000944663444360F4E78400105000011050F8
:10547000800010500C0010500800105010B5002390
:1054800008E00133DA0000210848115084466244E4
:105490005160DBB20E2BF4D9F022920000210448B7
:1054A000FFF76CFB034B044A1A6010BD000010505C
:1054B000E00C0120A413012080011050F0B5CE466D
:1054C000474680B583B01D4B9F6D0024012603E045
:1054D000B74376000134E4B2002F29D01F2C27D81F
:1054E0003E42F6D0164B9E65630899460123634001
:1054F00001221A4090464B465D0045446D01114B18
:10550000ED18280000F0ACFA0028E1D04B465B0013
:1055100043445B010B4AD3189A8A9978012300937C
:105520000023002000F00AFE280000F009FACFE76F
:1055300003B0C0BCB946B046F0BDC0460000115033
:1055400000301150A00C012070B52B4A9823D4587C
:1055500080235B0225001D401C420AD1E30616D4BD
:10556000E30419D4630429D4230433D4A5423ED1DF
:1055700070BDFFF7F3FE01222049002000F0C4FDBA
:105580001F4B802292021A6580256D02E6E71023E8
:105590001D43FFF793FFE3E780235B011D43164B99
:1055A00000221A60FFF76AFF01220021002000F0AC
:1055B00096FD134B802212031A65D3E78023DB018B
:1055C0001D4301220421002000F076FD0C4B102227
:1055D0001A65C9E780231B021D4301220521002013
:1055E00000F06AFD064B802212011A65BEE7290011
:1055F00061400448FCF7E6FF000011500000105025
:105600000030115078EC001070B50C001500FFF759
:1056100099FE2A00210000F0FFF970BD10B50028A6
:1056200004D101210520FBF791FB10BDB921034BEB
:10563000034A49000348FCF72BFFC0468CEC0010DE
:10564000C8EC0010F0EB001010B5002805D10022C6
:1056500000218020FFF7D8FF10BDBF21024B034A75
:1056600049000348FCF714FF8CEC0010B8EC001064
:10567000F0EB0010024B80225202DA647047C04601
:105680000020115070B5041E25D100F033F9154DDE
:105690000C23AB6714490520FBF782FB4022002155
:1056A0001248FFF76BFA002240210020FFF7A2FE0C
:1056B000002240218020FFF79DFEFFF7DFFE01233F
:1056C0002B6480239B05EB649023094AEA50200059
:1056D000FFF7D0FF70BD4E21064B074AFF31074848
:1056E000FCF7D6FE0000115049550010A00C012017
:1056F00010D001008CEC0010ECEC0010F0EB00106E
:105700000B785B0602D14B78052B00D070478A7866
:10571000014B1A60FAE7C0460000115010B50C00AA
:1057200000280DD10A794B7907211940090211434C
:10573000E2789207920FA078FFF75CFE012010BD7F
:10574000D621034B034A49000348FCF7A1FEC0469B
:105750008CEC0010A8EC0010F0EB001010B5FFF777
:105760008DFE10BD10B50400080011001A00002CB9
:1057700003D1FFF749FF012010BDBC21024B034AB2
:10578000FF310348FCF784FE8CEC001098EC00100D
:10579000F0EB001010B508004B0605D1CB09012B2A
:1057A0000AD00222054B9A66FFF7CCFD8022120137
:1057B000002100F0CBF810BD0122F3E700201150CA
:1057C00010B508004B0600D110BDFFF7BBFD00234C
:1057D000C3700022014900F0B9F8F5E7FFF7FFFFB9
:1057E000F8B504000F00438A828B1E1C934200D937
:1057F000161CB6B29B1B63828025ED003543E3780F
:10580000002B13D080229201154301225340E370F4
:105810006378002B0CD0638A002B02D18023DB013C
:105820001D43002F00D02D042800F8BD0022EBE717
:10583000B801E3689C4660443200A169FFF7A4F90F
:10584000A3699C466644A66180231B021D43E2E7D0
:1058500070B5040083681B68002900D01B0C9D05EF
:10586000AD0D6278002A11D11B0409D4A38A5B19FB
:10587000A382A38BAB4201D900236382280070BDB1
:105880000E4B0F4AD7210F48FCF702FE1B040ED522
:105890008901E3689C4661442A00A069FFF774F916
:1058A000A38A5B19A382A3695B19A361E1E7064B95
:1058B000034ADE210348FCF7EBFDC046F8EC00107C
:1058C00018EE001018ED00106CED001010B504007B
:1058D00083681B680021FFF7BBFF63681B685B00E0
:1058E00002D5A38B834200D010BD01212000FFF719
:1058F000AFFFF9E710B580235B040C4A13600C4A34
:1059000013600C4B9A6880235B049343F9D10A4CD3
:105910009C2200212000FFF731F980225201002152
:105920000648FFF72BF90923636710BD00E000402C
:1059300000F0004000C00040000011500000105076
:1059400000230374438283828361704710B500296A
:1059500002D083681B681940002A0FD011435305F9
:105960000CD5826813685B050BD40B4B0B4013609E
:10597000FFE7FFE7FFE7FFE7FFE7FFE7836819605F
:1059800010BD83787F211940DB099B00034A9A5898
:105990000348FCF717FEC046FFFBFFFF340800205A
:1059A0008CED001070B5040043681E680021FFF7FD
:1059B00017FF80256D010543144B1B6C9B0704D416
:1059C000A378DB0914D1013300E00023628A002AA6
:1059D00001D0002B0ED00E4B1E4080239B0533437D
:1059E000626813602A0000212000FFF7AFFF70BD3E
:1059F0000023EBE701212000FFF7F2FE0543054BF2
:105A00001E40A023DB053343EAE7C04600001150E7
:105A1000FFFFFFAFFFFFFFDF70B504000D001600B2
:105A2000037C002B09D166820023A38201332374F7
:105A3000A5612000FFF7B6FF70BD83787F21194074
:105A4000DB099B00044A9A580448FFF745FA2000F6
:105A5000FFF776FFE7E7C04634080020ACED001002
:105A600070B50400057C002D06D0FFF72FFF638A78
:105A7000002B08D1280070BD81787F231940044A8B
:105A80000448FCF79FFD2000FFF78CFF0025F1E79D
:105A900034080020E4ED001070B5050000240EE08D
:105AA00063001B19DA00184B1B689B1802E02300E7
:105AB00010E000235B68280098470134E4B2134BE0
:105AC0001B78A3420ED3124A002AF0D0A342E7D893
:105AD000E31ADBB2002BECD15A00D218D2000D4BE6
